:020000040800F2
:10000000B00F0020156600081D6600081F66000876
:10001000216600082366000825660008000000002D
:10002000000000000000000000000000276600083B
:1000300029660008000000002B6600084541000802
:100040002F6600082F6600082F6600082F6600083C
:100050002F6600082F6600082F6600082F6600082C
:100060002F6600082F6600082F6600082F6600081C
:100070002F6600082F6600082F6600082F6600080C
:100080002F6600082F6600082F6600084D41000803
:100090004F4100082F6600082F6600082F660008F1
:1000A0002F6600082F6600082F6600082F660008DC
:1000B0002F6600082F6600082F6600082F660008CC
:1000C0002F6600082F6600082F6600082F660008BC
:1000D0002F6600083D4100082F6600082F660008C3
:1000E0002F6600082F6600082F660008DFF80CD086
:1000F0000BF0D6FB0048004717010008B00F0020A6
:1001000010B5012145F21D2006F076FD0121414880
:1001100006F07FFD10BD01203F490880FFF7F0FF8A
:100120004FF4407006F0CCFD02203B49088004F0FB
:1001300054F803203849088001F0C0F804203649FB
:10014000088004F07DFF05203349088004F064FA3C
:1001500006203149088004F0F7F930490870084654
:10016000007840B12E480178042004F07EF9002088
:100170002C49087102E001202A490871072026490C
:10018000088004F061F804F015FD05F0D3F801F0E3
:10019000CCFB08202049088006F04EFA4FF4FA7193
:1001A000B0FBF1F4B4F1807F00D31DE024F07F4078
:1001B000401E4FF0E021486148170F21002807DA60
:1001C0000A07150E184A00F00F031B1FD55403E051
:1001D0000A07130E154A135400BF00204FF0E02108
:1001E00088610720086100BF12E00E48407878B1AE
:1001F00003F0F1FE00200B49487007480088401CBE
:100200000549088008460088142801DB142008806E
:10021000EBE70000020024000200002000000020A4
:100220009A0300202C00002018ED00E000E400E01C
:1002300010B57548008A7549088108460089B0F5EF
:10024000AC7F07DC08460089B0F5A07F02DD012005
:10025000C87002E000206D49C8706D4800886D4983
:1002600008800846008800B2674948820020684933
:10027000088068480088A8B90221674807F07BF920
:10028000002062494871887108708881084680782A
:10029000022803D00846807803280AD100205B4951
:1002A000887006E002215C4807F063F90120574995
:1002B000887110BD10B501205449487004F0ABF8A6
:1002C0005648007820B100215548008800F089FF89
:1002D00010BD10B505F07CFE10BD10B500F020FC7F
:1002E00000F08CFC03F0F0FD4E480068401C4D49C6
:1002F00008604648807908B900F04FFD10BD10B580
:100300004948007801280BD148480078212804DAB0
:1003100046480178401C04F067F800204249087004
:1003200010BD10B504F02FF94148007848B141489C
:100330000178414804F099FE04F0AFFE00203C49EA
:10034000087000F099FA10BD10B53C4800880128EB
:1003500004DBFFF7E6FF00203849088038480088B2
:10036000022804DBFFF7CBFF002035490880354821
:100370000088052804DBFFF7B0FF00203149088022
:10038000314800880A2804DBFFF7A3FF00202E492C
:1003900008802E480088192804DBFFF78BFF002017
:1003A0002A4908802A480088B0F5FA7F09DB2948E5
:1003B0000088401C27490880FFF73AFF00202449A5
:1003C000088010BD10B51D480088401C1B490880DE
:1003D0001B480088401C1A4908801A480088401CA5
:1003E0001849088018480088401C17490880174899
:1003F0000088401C1549088015480088401C144995
:100400000880FFF7A1FF10BD7A0200202C00002019
:10041000EE000020EC000020000C0140AC000020A9
:10042000A0000020D40000208A010020140A00202F
:10043000F0000020EA000020C20700200400002095
:1004400006000020080000200A0000200C00002008
:100450000E00002010000020B0F90010B1F5797FE7
:1004600007DBB0F90010B1F57B7F02DC4FF47A7145
:100470000180B0F9041040F2D252914208DDB0F987
:10048000041040F2E652914202DA40F2DC518180DF
:10049000B0F9061040F2D252914208DDB0F90610D0
:1004A00040F2E652914202DA40F2DC51C180B0F9EA
:1004B000021040F2D252914208DDB0F9021040F22F
:1004C000E652914202DA40F2DC5141807047B0F9C5
:1004D0000010B1F57A7F02DC4FF47A7101E0B0F9D7
:1004E00000100180B0F90010B1F5FA6F02DB4FF493
:1004F000FA6101E0B0F900100180B0F90410B1F523
:100500007A7F02DC4FF47A7101E0B0F90410818047
:10051000B0F90410B1F5FA6F02DB4FF4FA6101E0B3
:10052000B0F904108180B0F90610B1F57A7F02DCD1
:100530004FF47A7101E0B0F90610C180B0F90610ED
:10054000B1F5FA6F02DB4FF4FA6101E0B0F9061081
:10055000C180B0F90210B1F57A7F02DC4FF47A71F4
:1005600001E0B0F902104180B0F90210B1F5FA6F64
:1005700002DB4FF4FA6101E0B0F902104180B0F9FA
:100580000810B1F57A7F02DC4FF47A7101E0B0F91E
:1005900008100181B0F90810B1F5FA6F02DB4FF4D1
:1005A000FA6101E0B0F908100181B0F90A10B1F563
:1005B0007A7F02DC4FF47A7101E0B0F90A104181D0
:1005C000B0F90A10B1F5FA6F02DB4FF4FA6101E0FD
:1005D000B0F90A104181B0F90C10B1F57A7F02DC54
:1005E0004FF47A7101E0B0F90C108181B0F90C1070
:1005F000B1F5FA6F02DB4FF4FA6101E0B0F90C10CB
:1006000081817047FE490A68091DFE4B1B7831F84D
:100610001310511AFA4A1160FB490A68091DF94B77
:100620001B7831F81310511AF74A1160F7490A681C
:10063000091DF44B1B7831F81310511AF34A11605D
:10064000F3490A68091DEF4B1B7831F81310511A52
:10065000EF4A1160EF490A68091DEA4B1B7831F82F
:100660001310511AEB4A116001888AB2E449091D3E
:10067000E44B1B7821F8132041888AB2E249091D16
:10068000E04B1B7821F8132081888AB2DF49091DCD
:10069000DC4B1B7821F81320C1888AB2DC49091D84
:1006A000D84B1B7821F8132001898AB2D949091D3A
:1006B000D44B1B7821F81320D1490A68091DD14B6E
:1006C0001B7831F813101144CD4A1160CE490A68E5
:1006D000091DCC4B1B7831F813101144CA4A116024
:1006E000CA490A68091DC74B1B7831F81310114419
:1006F000C64A1160C6490A68091DC24B1B7831F809
:1007000013101144C24A1160C2490A68091DBD4B49
:100710001B7831F813101144BE4A1160B8490968BA
:100720000A22B1FBF2F109B20180B7490968B1FBB5
:10073000F2F109B24180B5490968B1FBF2F109B2A1
:100740008180B3490968B1FBF2F109B2C180B149B6
:100750000968B1FBF2F109B20181AA490978491C83
:10076000A84A1170114609780A2901D10021117097
:10077000704710B50446A848407800287AD0A748AA
:100780000078A0B90020A44988804880C8810882E8
:10079000888148810120A14908700020A049086093
:1007A000A0490860A0490860A049086010BD9B48A6
:1007B0000078401C99490870B4F90000984909680C
:1007C000084497490860B4F902009649096808444A
:1007D00094490860B4F906009349096808449249AD
:1007E0000860B4F904009149096808448F49086019
:1007F0008A48007833283DD188480078401E8749D0
:10080000087087480068097890FBF1F0C0F57A70AD
:100810008149C881834800688049097890FBF1F0DC
:1008200040F2DC51081A7C4908827F4800687B4905
:10083000097890FBF1F040F2DC51081A7649888182
:100840007A4800687549097890FBF1F040F2DC5174
:10085000081A7149488100207049087005207449C0
:1008600081F83900022081F8380000206A49487078
:1008700000F00CFD00BF99E72DE9F0476D48FFF748
:1008800078FF6D49C8880AF015FE05464FF07A5189
:100890000AF00FFC04460AF03CFE00F57A705E494F
:1008A000C989084400B263490880634948880AF04E
:1008B00001FE05464FF07A510AF0FBFB04460AF0B0
:1008C00028FE00F57A7054498989084400B25949D4
:1008D000C880594988880AF0EDFD05464FF07A51E5
:1008E0000AF0E7FB04460AF014FE00F57A704A4964
:1008F000098A084400B24F4948804F4908880AF0E5
:10090000D9FD05464FF07A510AF0D3FB04460AF0B0
:1009100000FEC0F5FA6040494989084400B24549E3
:1009200088804549088A0AF0C5FD80464249C88941
:100930000AF0C0FD81464FF080410AF0BAFB07463D
:1009400041460AF0E8FB06463C490AF0B2FB054680
:100950003B490AF0AEFB04460AF0DBFD2C3000B246
:10096000344908810846FFF74DFEBDE8F0872DE9C0
:10097000FE4F344800883449088032484088488017
:100980003048C08888802F488088C8802D48808A59
:10099000C0F30320C0F10809002002902948807D9F
:1009A00000F0010010B14FF0FF3002902548807D2B
:1009B00000F0020008B10120029000BF2149898A9D
:1009C000C1F30331881E0AF07AFD07461F4A204B07
:1009D0000AF086FC054600221E4B0AF0DAFBCDE940
:1009E00000011949B1F90010A1F57A700AF067FD0C
:1009F0000746DDE900230AF073FC054600222BE0E0
:100A0000A802002014000020F0020020D8020020DC
:100A1000C0020020500300209A030020150000208F
:100A2000180000201C0000202000002024000020CE
:100A30002C00002092020020020A00209A99993F7F
:100A40000000C8427A0200209C0200209A999999DD
:100A50009999A93F0000F03F5E4B0AF09AFB82464D
:100A60000AF06BFD00B25C4908800A46B2F900202A
:100A7000A2F57A7202EB4202029B02FB03F0C2175C
:100A800000EB5272D11001EBD17254105248B0F900
:100A90000000A0F57A702044002804DC4E48B0F92C
:100AA0000000C0F57A744C480088204400B24A49DE
:100AB0000880B1F90410A1F2DC5101FB09F0C11763
:100AC00000EB5171C91001F2DC5109B2424A918028
:100AD0001146B1F90610A1F2DC5101FB09F0C11772
:100AE00000EB5171C91001F2DC5109B2D1801046FE
:100AF00081883A480089A0F2DC50084400B21146CF
:100B000088800846C18835488089A0F2DC500844B6
:100B100000B21146C880084640884880BDE8FE8F74
:100B200010B52F4800882D4908802D4840884880FE
:100B30002B48C08888802A488088C88004F024FC1C
:100B40002848408840F2DC5101EB400000B22349C4
:100B500008812448808840F2DC5101EB400000B25B
:100B60001E4988811F48807940B2C8731C4800899B
:100B700008820846808AC0F30B001B4991F83810A0
:100B80004FF4704202EA0131084300B213498882EF
:100B90000846808A4FF2FF010840134991F8391046
:100BA000121102EA0121084300B20C49888208466A
:100BB000FFF752FC0948FFF78AFC0848807D00F0E7
:100BC000400018B14FF47A7004490880FFF7CFFE57
:100BD00010BD000000408F409C0200207A020020DF
:100BE000920200209A0300202C00002070B50446D9
:100BF0000D462946204603F0F7FB70BD70B5002472
:100C0000AA222146641CFE484254AF222146641C9D
:100C1000425403222146641C425400222146641C93
:100C20004254F84842782146641CF5484254F5483D
:100C300002782146641CF2484254F248C2782146A8
:100C4000641CEF484254EF4882782046611CCCB2C5
:100C5000EB490A54EB48C2792046611CCCB2E84902
:100C60000A54E84882792046611CCCB2E4490A540F
:100C7000E44842792046611CCCB2E1490A54E1487B
:100C800002792046611CCCB2DD490A54DD48427A23
:100C90002046611CCCB2DA490A54DA48027A20466E
:100CA000611CCCB2D6490A54D648C27A2046611C8F
:100CB000CCB2D3490A54D348827A2046611CCCB2C4
:100CC000CF490A54CF48427B2046611CCCB2CC4964
:100CD0000A54CC48027B2046611CCCB2C8490A5455
:100CE000C848C27B2046611CCCB2C5490A54C548DD
:100CF000827B2046611CCCB2C1490A54C148427C67
:100D00002046611CCCB2BE490A54BE48027C214632
:100D1000601CC4B2BA484254BA48C27C2046611C26
:100D2000CCB2B7490A54B748827C2046611CCCB289
:100D3000B3490A54B348427D2046611CCCB2B04945
:100D40000A54B048027D2046611CCCB2AC490A541A
:100D5000AC48C27D2046611CCCB2A9490A54A948BE
:100D6000827D2046611CCCB2A5490A54201FC87060
:100D70000025002005E0A249095C2944CDB2411CB0
:100D8000C8B2A042F7DB2046611CCCB29C490D548E
:100D900021469B48FFF72AFF70BD70B50024AA22A8
:100DA0002146641C964842542146641C4254032246
:100DB0002146641C425400222146641C425491483E
:100DC00042782146641C8E4842548E48027821465F
:100DD000641C8B4842548B48C2782146641C884866
:100DE0004254884882782046611CCCB284490A5417
:100DF0008448C2792046611CCCB281490A5481489A
:100E000082792046611CCCB27D490A547D484279E2
:100E10002046611CCCB27A490A547A4802792046AD
:100E2000611CCCB276490A547648427A2046611C4D
:100E3000CCB273490A547348027A2046611CCCB282
:100E40006F490A546F48C27A2046611CCCB26C4983
:100E50000A546C48827A2046611CCCB268490A5414
:100E60006848427B2046611CCCB265490A546548FB
:100E7000027B2046611CCCB261490A546148C27BA6
:100E80002046611CCCB25E490A545E48827B2046F3
:100E9000611CCCB25A490A545A48427C2046611C13
:100EA000CCB257490A545748027C2046611CCCB248
:100EB00053490A545348C27C2046611CCCB2504965
:100EC0000A545048827C2046611CCCB24C490A54DA
:100ED000201FC8700025002005E04949095C29440D
:100EE000CDB2411CC8B2A042F7DB2046611CCCB297
:100EF00043490D542146424804F0B7F804F0CDF8B8
:100F000070BD2DE9FC5F04460D460026002004E07C
:100F1000215C3144CEB2411CC8B2691E8142F7DC6B
:100F2000601910F8010CB04201D0BDE8FC9F207898
:100F3000AA2802D16078AA2800D0F6E794F8029097
:100F4000B9F1090F02D100202F490870A0780128BB
:100F50007CD12179090209B2627941EA02000AF0E2
:100F6000AEFA2A4A2A4BCDE900010AF0B9F9074640
:100F70000AF0E3FA27490861A179090209B2E27986
:100F800041EA02000AF09BFA204A214BCDE9000118
:100F90000AF0A6F907460AF0D0FA1E494861217AFC
:100FA000090209B2627A41EA02000AF088FA0746A9
:100FB000164A174B0AF094F9CDE900010AF0BDFA80
:100FC00014498861A17A0906E27A41EA0241227B4A
:100FD00041EA0221627B41EA02000AF070FA074608
:100FE00000220D4B0AF07CF9CDE900010AF0A5FAC8
:100FF0000849C86194F80FA0084690F820000DE059
:10100000680300207A020020F00000209A99999944
:101010009999B93F2C0000200000F03F012811D120
:10102000BAF1000F0ED1084690F82100012805D131
:101030004FF47A708F49488104E007E04FF4FA607A
:101040008C4948818C4880F820A000BFDFF82CB282
:10105000A07802280DD1A17B090209B2E27B41EA06
:1010600002000AF01EFA074659460AF022F88249A1
:101070000865A078052821D12079617941EA00200E
:101080007D494881207A0870607A4871A07AE17AB7
:1010900041EA002078498881207B617B41EA002079
:1010A0007549C881A07B81F826000846C08974492B
:1010B0000988884202D1002072490870A078072868
:1010C0000DD1607A217A40EA012000B26A4908868F
:1010D000E07AA17A40EA012000B267494886A07808
:1010E000092846D12079000200B26179084362499B
:1010F000A1F85400A079000200B2E17908435E49EA
:10110000A1F85600207A000200B2617A08435A49D9
:10111000A1F85800A07A000200B2E17A08435649CB
:10112000A1F85A00207B000200B2617B08435249BB
:10113000A1F85C00A07B000200B2E17B08434E49AD
:10114000A1F85E00207C000200B2617C08434A499D
:101150008886A07C000200B2E17C08434649C8862C
:101160000846C08946490988884202D1002045497D
:101170000870A0780B2832D12079000200B2617982
:1011800008433D494884A079000200B2E179084350
:1011900039498884A07A000200B2E17A08433649CE
:1011A0000885207B000200B2617B084332494885F4
:1011B000A07B000200B2E17B08432F498885207C98
:1011C000000200B2617C08432B49C8850846C089EB
:1011D0002B490988884202D100202A49087000BFA3
:1011E000A3E62DE9F84306460F460024A046AA22AE
:1011F0002146641C24484254AF222146641C4254B8
:10120000F1222146641C425400222146641C4254AF
:1012100000969DF801202146641C42549DF8002050
:101220002146641C425400979DF801202146641C0D
:1012300042549DF800202046611CCCB212490A5449
:10124000201FC870002506E00F48405D404400F0B4
:10125000FF08681CC5B2A542F6DB2046611CCCB273
:10126000094901F8008020210748FFF7BFFCBDE8CD
:10127000F88300007A0200202C000020F6FF793D60
:10128000A0000020AC0000206803002010B514214D
:10129000164804F018F810BD10B5C820134908709E
:1012A0000020487048808880C88048818881C88133
:1012B000088244200881FFF7E9FF10BD10B5142112
:1012C0000A4803F0DDFF09480089442801D0FFF7F0
:1012D000E3FF0220064981F83800052081F8390033
:1012E00000200249C880887410BD00009A030020C5
:1012F0002C00002010B50020F949087022E003F00E
:10130000CBFD002003F0D8FDF5490978B031C8B213
:1013100003F0DEFD03F0C0FD012003F0CDFD00244D
:1013200009E0F04901EBC401ED4A1278885C03F052
:10133000CFFD601CC4B2802CF3DBE9480078401C70
:10134000E7490870E64800780828D8DB03F0AFFDCD
:1013500010BD00200CE0002106E00022E14B03EB71
:10136000C1031A544A1CD1B28029F6DB421CD0B208
:101370000828F0DB7047F0B5144600267F2801DC12
:101380003F2900DDF0BD0B46CF1701EB5777FF106B
:10139000C7F10707FAB2CF1701EB5777FF10A1EBA0
:1013A000C707FDB2C5F107070123BB40DEB24CB150
:1013B000CC4B03EBC0039B5C3343CA4F07EBC00726
:1013C000BB5408E0C74B03EBC0039B5CB343C54F62
:1013D00007EBC007BB5400BFD4E72DE9FF4F84B033
:1013E00081468A460020029083460698A0EB0905B4
:1013F0000798A0EB0A06CDF80490CDF800A0002DC8
:1014000001DD012705E00DB9002702E04FF0FF37AD
:101410006D42002E02DD4FF0010806E016B94FF0D4
:10142000000802E04FF0FF387642B54201DD2C465D
:1014300000E03446002003901EE0009AD1B2019AE9
:10144000D0B2119AFFF797FF029828440290B34454
:101450000298A04205DD0298001B029001983844D2
:101460000190A34504DDABEB040B009840440090D1
:101470000398401C80B20390611C03988842DCDB17
:1014800008B0BDE8F08F2DE9F04706460F469046BC
:1014900099460025444643E03A1BD1B27219D0B2B6
:1014A0004A46FFF768FF3A1BD1B2721BD0B24A46D8
:1014B000FFF761FF3A19D1B2721BD0B24A46FFF76B
:1014C0005AFF3A19D1B27219D0B24A46FFF753FF08
:1014D0007A19D1B23219D0B24A46FFF74CFF7A1BC3
:1014E000D1B23219D0B24A46FFF745FF7A1BD1B2CA
:1014F000321BD0B24A46FFF73EFF7A19D1B2321BF7
:10150000D0B24A46FFF737FF6D1C05FB05F004FB20
:10151000040008FB180ABAF1000F01DD641E6D1EFD
:101520006000604308FB08F18842B5DABDE8F08747
:101530002DE9F04706460F4690469946DDF820A073
:10154000002414E000250EE0BAF1000F01D10123C0
:1015500000E000231A463B19D9B27319D8B2FFF73D
:101560000AFF681CC5B24545EEDB601CC4B24C45A1
:10157000E8DBBDE8F0872DE9F04F80460C461546C4
:101580001E46A346A5F12000C5B200273EE00C2E62
:1015900007D105EB4500544901EB800010F8079096
:1015A00004E0524800EB051010F807904FF0000AD5
:1015B00026E009F0800028B121464046099AFFF74D
:1015C000DAFE09E0099808B9012000E0002002468F
:1015D00021464046FFF7CFFE4FEA49604FEA1069C7
:1015E000601CC4B2A4EB0B00B04205D15C4608F10C
:1015F000010000F0FF0806E00AF1010000F0FF0A18
:10160000BAF1080FD5DB00BF781CC7B2B742BEDB0A
:10161000BDE8F08F2DE9F04F07460C4690461D4679
:10162000A346002634E008EB4800314901EB800076
:1016300010F806904FF0000A24E009F0800028B16D
:1016400021463846099AFFF796FE09E0099808B93D
:10165000012000E00020024621463846FFF78BFEBD
:101660004FEA49604FEA1069601CC4B2A4EB0B005A
:10167000A84203D15C46781CC7B206E00AF101001B
:1016800000F0FF0ABAF1080FD7DB00BF701CC6B22A
:10169000AE42C8DBBDE8F08F2DE9F84306460F46A1
:1016A00014461D46DDF82090012000906006020ED1
:1016B0002B4639463046FFF7ADFF0120A84605EB23
:1016C000D87106EB61010090C8B2012101EB440121
:1016D000CAB22B463946FFF79DFFBDE8F8830000EC
:1016E00029000020AE0300205CC90008D0CD00080E
:1016F000C0D300082DE9F04F07460C4690461D4622
:10170000A34600262FE018F806904FF0000A24E0C8
:1017100009F0800028B121463846099AFFF72BFED0
:1017200009E0099808B9012000E00020024621469E
:101730003846FFF720FE4FEA49604FEA1069601C07
:10174000C4B2A4EB0B00A84203D15C46781CC7B21C
:1017500006E00AF1010000F0FF0ABAF1080FD7DB3A
:1017600000BF701CC6B2AE42CDDBBDE8F08F10B535
:101770000246012000E050430B00A1F10104E1B258
:10178000F9D110BD2DE9FF4F81B0074691461E46A5
:101790000E9D4FF0000A002439E0301B401EC1B2FC
:1017A0000A20FFF7E4FFB9FBF0F00A21B0FBF1F2E9
:1017B00001FB1208BAF1000F16D1701EA04213DD12
:1017C000B8F1000F0ED10120AB4605EBDB714910DB
:1017D00001FB04710090C8B22B4620220299FFF74A
:1017E000CAFE12E04FF0010A0120AB4605EBDB71A7
:1017F000491001FB04710090C8B208F13001CAB26F
:101800002B460299FFF7B7FE00BF601CC4B2B4427A
:10181000C3DB05B0BDE8F08F2DE9F84104468846EA
:1018200015461E46079F26E00C2E06D133460122A0
:10183000414620460097FFF77BFE601CC4B2B8F11A
:101840003A0F04DD002004468046FFF782FD009732
:101850002A78334641462046FFF78DFE0C2E07D1ED
:10186000A11DC8B23346012241460097FFF760FE32
:10187000E01DC4B26D1C28780028D5D1BDE8F881E0
:101880002DE9F8410446884615461E46079F25E087
:101890000C2E06D133460122414620460097FFF721
:1018A00047FEE4B2B8F13A0F04DD0020044680465A
:1018B000FFF74FFD00972A78334641462046FFF751
:1018C0005AFE0C2E07D1A11DC8B233460122414653
:1018D0000097FFF72DFEA01DC4B26D1C28780028CC
:1018E000D6D1BDE8F88178B505460E46144618E015
:1018F0007A2D03DD002506F11000C6B23A2E04DD74
:10190000002005460646FFF724FD012000902278BE
:10191000102331462846FFF72EFE05F10800C5B218
:10192000641C20780028E3D178BD10B5012108207F
:1019300005F062F903F04EF94FF4FA7002F0E5FB9E
:10194000AE2003F0CCFA2C490870002003F0C7FA4F
:10195000102003F0C4FA402003F0C1FA812003F004
:10196000BEFA8F2003F0BBFAA12003F0B8FAC02022
:1019700003F0B5FAA62003F0B2FAA82003F0AFFAFC
:101980003F2003F0ACFAD32003F0A9FA002003F0C3
:10199000A6FAD52003F0A3FA802003F0A0FAD920FC
:1019A00003F09DFAF12003F09AFADA2003F097FA97
:1019B000122003F094FADB2003F091FA402003F0A8
:1019C0008EFA202003F08BFA022003F088FA8D2093
:1019D00003F085FA142003F082FAA42003F07FFAC2
:1019E000A62003F07CFAFFF7B4FCAF2003F077FAEF
:1019F00000200249887010BD280000202C00002023
:101A00002DE9F84F04460E4690461F46DDE90B5A75
:101A1000DDF828900D2C7ED2DFE804F007101922A3
:101A20002B343D464F58616A74003019C2B22B46C0
:101A3000494638460095FFF72FFE74E03019C2B2D0
:101A40002B46494638460095FFF726FE6BE03019D5
:101A5000C2B22B46494638460095FFF71DFE62E0AC
:101A60003019C2B22B46494638460095FFF714FE9E
:101A700059E03019C2B22B46494638460095FFF767
:101A80000BFE50E03019C2B22B464946384600954D
:101A9000FFF702FE47E03019C2B22B4649463846EE
:101AA0000095FFF7F9FD3EE03019C2B22B464946DA
:101AB00038460095FFF7F0FD35E03019C2B22B46ED
:101AC000494638460095FFF7E7FD2CE03019C2B2D1
:101AD0002B46494638460095FFF7DEFD23E03019D6
:101AE000C2B22B46494638460095FFF7D5FD1AE0AD
:101AF0003019C2B22B46494638460095FFF7CCFD57
:101B000011E008E03019C2B22B464946384600952C
:101B1000FFF7C2FD07E02B4642464946384600958E
:101B2000FFF7BAFD00BF00BFBDE8F88F00B58FB06A
:101B3000FE480078FE490978884205D0FB480078C5
:101B4000FB490870FFF705FCFA48C078B0B3FA48C3
:101B50000078401CF84908700846007803280BDD1F
:101B600000200870F548007818B90120F349087082
:101B700002E00020F1490870002006901AE0EF48CA
:101B800000780090069800EB4000ED4901EB8000E2
:101B90000590069800EB4000212101EB4000C0B207
:101BA0000C2304900021059AFFF7A4FD0698401C21
:101BB000C0B2069006980C28E1DB6DE0FFE7DD4837
:101BC000007B00F02000B0B3DB480078401CDA490D
:101BD00008700846007803280BDD00200870D748FD
:101BE000007818B90120D549087002E00020D349D7
:101BF0000870002006901AE0D048007800900698FF
:101C000000EB4000CF4901EB80000590069800EB07
:101C10004000212101EB4000C0B20C2304900021C0
:101C2000059AFFF767FD0698401CC0B2069006981B
:101C30000C28E1DB30E0FFE701200C2300221146F5
:101C400000902120FFF728FD01200C2302460021EF
:101C500000902D20FFF720FD01200C2302220021FF
:101C600000903920FFF718FD01200C2303220021EA
:101C700000904520FFF710FD01200C2304220021D5
:101C800000905120FFF708FD01200C2305220021C0
:101C900000905D20FFF700FD0922A6493A31AA48CD
:101CA00009F0A2F948B1A9480068A94908601422BE
:101CB000A0493A31A44809F085F9A4480068A4492C
:101CC0000968401AB0F5967F09D201200C23994A81
:101CD0003A32002100902120FFF79EFD08E09DA1EF
:101CE00094483A3009F03EFE9AA1974809F03AFE2E
:101CF0009048007940B101200C2306220021009079
:101D00000220FFF7C9FC0AE00C20009092480078FE
:101D100003230246002106900220FFF733FD854889
:101D20004079142190FBF1F000B208900898052842
:101D300031D2DFE800F0030C151E270001200C2330
:101D40000622002100907620FFF7A6FC2CE001205F
:101D50000C230722002100907620FFF79DFC23E052
:101D600001200C230822002100907620FFF794FC2C
:101D70001AE001200C230922002100907620FFF7B1
:101D80008BFC11E001200C230A2200210090762018
:101D9000FFF782FC08E001200C230B2200210090B9
:101DA0007620FFF779FC00BF00BF01200C236BA257
:101DB0000E2100900520FFF72FFD01200C2369A2C2
:101DC0000E2100902920FFF727FD5A480089642141
:101DD00090FBF1F006900C20012300900E212320AF
:101DE000069AFFF7CFFC53480089642190FBF1F27B
:101DF00001FB120006900C20022300900E212F20E0
:101E0000069AFFF7BFFC4B480089642190FBF1F272
:101E100001FB12000A2807DA0C20012300220E2100
:101E200000902F20FFF7AEFC01200C234EA20E21C4
:101E300000904520FFF7F0FC01200C2349A20E2161
:101E400000906920FFF7E8FC3A484089642190FB44
:101E5000F1F006900C20012300900E216320069AD9
:101E6000FFF790FC33484089642190FBF1F201FBBD
:101E7000120006900C20022300900E216F20069A7B
:101E8000FFF780FC2B484089642190FBF1F201FBB5
:101E900012000A2807DA0C20012300220E210090EC
:101EA0006F20FFF76FFC01200C2331A21B21009053
:101EB0000520FFF7B1FC3048807D00F0400038B1CC
:101EC000012021231D22194600900520FFF785FAE5
:101ED0002A48B0F90000A0F57A70292190FBF1F0B2
:101EE00000B2089001200C211B22CDE900210290B4
:101EF0000898C0B2242318220690FFF781FD1F48DE
:101F0000B0F90000A0F2DC50292190FBF1F000B202
:101F1000089001200C211B22CDE900210290089895
:101F2000C0B22F230A4606902AE00000B800002025
:101F3000B90000202C000020BA000020BB000020C7
:101F4000BCDD00084CDE0008AE070020D4000020F5
:101F5000BC000020000000009A030020522D563AD9
:101F6000000000002E000000462D563A0000000040
:101F70005448523A000000007A0200209C020020DF
:101F8000FFF73EFD01200C23FAA228210090052036
:101F9000FFF742FCF948B0F90200A0F57A70292158
:101FA00090FBF1F000B2089001200C212822CDE92D
:101FB000002102900898C0B2242318220690FFF74F
:101FC0001FFDEE48B0F90200A0F2DC50292190FB81
:101FD000F1F000B2089001200C212822CDE9002167
:101FE00002900898C0B22F230A460690FFF708FD1A
:101FF00001200C23E2A21B2100904520FFF70CFCDE
:10200000DE48B0F90600A0F57A70292190FBF1F0C6
:1020100000B2089001200C211B22CDE90021029082
:102020000898C0B2642318220690FFF7E9FCD34851
:10203000B0F90600A0F2DC50292190FBF1F000B2CB
:10204000089008980C2801DD0C20089001200C2134
:102050001B22CDE9002102900898C0B26F230A46E6
:102060000690FFF7CDFC01200C23C7A22821009089
:102070004520FFF7D1FBC148B0F90400A0F57A7004
:10208000292190FBF1F000B2089001200C212822B8
:10209000CDE9002102900898C0B26423182206906E
:1020A000FFF7AEFCB548B0F90400A0F2DC502921DE
:1020B00090FBF1F000B2089008980C2801DD0C208C
:1020C000089001200C212822CDE9002102900898D7
:1020D000C0B26F230A460690FFF792FCAC484079E5
:1020E00000287DD0AA480078012879D1A949087034
:1020F000A748C0690790A8490798884209DD0846A3
:10210000079001200C23A5A2352100900520FFF7A0
:1021100083FB0798B0F57A7F05DAA1A109A8079A91
:1021200009F020FC09E06421079890FBF1F00246D9
:102130009DA1059009A809F015FC01200C239CA283
:10214000352100900520FFF79BFB01200C2309AAF5
:10215000352100900520FFF793FB01200C2396A268
:10216000352100903320FFF78BFB894840690190AF
:1021700009F097F99349029008F0CDFF039009F018
:1021800014FA02460B46CDE904018FA109A809F013
:10219000E9FB01200C2309AA352100903320FFF729
:1021A0006FFB01200C2382A2352100906420FFF7F1
:1021B00067FB77480069019009F073F98149029043
:1021C00008F0A9FF039009F0F0F902460B46CDE9AB
:1021D00004017DA109A809F0C5FB0020069000E0DC
:1021E0002AE06B4800690590002801DB059801E0B2
:1021F00005984042642801DB01200690644800698C
:102200000590002801DB059801E005984042B0F5F3
:102210007A7F01DB0220069001200090069800EBF7
:1022200040004000C0F16400C0B20C2309AA35216F
:102230000590FFF725FB98E0022056490870012021
:102240000C2363A2352100900220FFF7E5FA6148D4
:10225000807940B280300A2190FBF1F000B2089002
:1022600001200C213522CDE9002102900898C0B24E
:10227000112318220690FFF7C3FB5648C0880A2195
:1022800090FBF1F000B2089001200C213522CDE93D
:10229000002102900898C0B21C230A460690FFF75E
:1022A000AFFB01200C234CA2352100902E20FFF71C
:1022B000B3FA4848007940B280300A2190FBF1F02F
:1022C00000B2089001200C213522CDE900210290B6
:1022D0000898C0B23D2318220690FFF791FB3D48B5
:1022E00080880A2190FBF1F000B2089001200C21B7
:1022F0003522CDE9002102900898C0B248230A4651
:102300000690FFF77DFB01200C2334A235210090BD
:102310005A20FFF781FA2F48807840B280300A2196
:1023200090FBF1F000B2089001200C213522CDE99C
:10233000002102900898C0B2692318220690FFF786
:102340005FFB244840880A2190FBF1F000B208901E
:1023500001200C213522CDE9002102900898C0B25D
:1023600074230A460690FFF74BFBFEF7C3FF0FB03E
:1023700000BD00005941573A000000009C020020B7
:102380005049543A00000000524F4C3A00000000FF
:102390002C000020B80000203C8601003E00000018
:1023A000252B64636D000000252B644D00000000A8
:1023B000202020202020000020202020202020205D
:1023C0002020000000002041252B2E316600000057
:1023D000593A00009A030020503A0000523A000097
:1023E00000B58FB000200E90FE480088C0B2089063
:1023F000FD4801780898814204D0FB49089808708C
:10240000FEF7A7FF089810B1012879D15BE1002001
:10241000079019E001200090079800EB4000F34975
:1024200001EB80000690079800EB4000222101EBB1
:102430004000C0B20C230590069A0E99FFF75AF996
:102440000798401CC0B2079007980828E2DBE848CC
:10245000807C00B30020079019E0002000900798CE
:1024600000EB4000E34901EB80000690079800EB89
:102470004000682101EB4000C0B20C230590069A91
:102480000E99FFF737F90798401CC0B207900798DC
:102490000428E2DB1FE00020079019E000200090F4
:1024A000079800EB4000D44901EB800006900798A4
:1024B00000EB4000682101EB4000C0B20C23059006
:1024C000069A0E99FFF716F90798401CC0B20790BC
:1024D00007980428E2DB01200C23C84A0021009061
:1024E0000A20FFF799F9C648807D00F0200040B12E
:1024F00000200C23C3A201460090FFF78DF907E0EE
:10250000CDE300200C23C0A201460090FFF784F920
:10251000BB48007D40B240420090BC48B0F9020088
:102520000790BA48B0F9000006900246B8A109A881
:10253000079B09F017FA01200C2309AA0E2100902D
:102540000A20FFF769F9AE48807D00F0400038B1FD
:10255000012014233022194600900A20FEF73DFF87
:10256000A748B0F90A00B0F5FA6F07D100200C2394
:10257000ABA20E210090FFF74FF920E000200C23C2
:10258000A8A20E210090FFF747F99D48C08A00F4E9
:10259000005038B900201623082219460090042064
:1025A000FEF71BFF9648C08A00F4005038B900209F
:1025B00019230622142100901046FEF70EFF9348BF
:1025C000B0F90600024698A1079009A809F0CAF9D7
:1025D00001200C2309AA1B2100900220FFF71CF9FF
:1025E0008A48B0F90400024691A1079009A809F0B1
:1025F000B9F901200C2309AA1B2100903220FFF712
:102600000BF97B48C08800B202468BA1079009A84D
:1026100009F0A8F901200C2309AA1B2100906220CF
:10262000FFF7FAF87248808900B2079070488088F6
:1026300000B20690024682A109A8079B09F092F910
:1026400001200C2309AA282100900220FFF7E4F8BA
:102650006748408900B207906548408800B20690FC
:1026600002467BA109A8079B09F07CF901200C23F5
:1026700009AA282100904A20FFF7CEF86048B0F957
:1026800016005F49898AC1F30721CDE900105B4834
:102690003A3890F83900C0F10800079057483A38A6
:1026A00090F83800401C069002466CA109A8079BD0
:1026B00009F058F901200C2309AA352100900220C5
:1026C000FFF7AAF835E30020079019E000200090FA
:1026D000079800EB4000684901EB800006900798DE
:1026E00000EB4000682101EB4000C0B20C230590D4
:1026F0000021069AFEF7FEFF0798401CC0B2079023
:1027000007980428E2DB3E48807D00F0200038B1C5
:1027100000200C233BA201460090FFF77DF806E065
:1027200000200C2338A201460090FFF775F83348CB
:102730003A38007B00F02000A8B150480078401CD7
:102740004E4908700846007803280FDD0020087005
:102750004B48007818B901204949087006E000206C
:102760004749087002E001204549087045A109A8C1
:1027700009F0F8F801200C2309AA002100900B2091
:10278000FFF77EF81D483A384089039008F092FE22
:102790003F49049008F0BFFC059008F006FF024690
:1027A0000B46CDE906013BA109A809F0DBF8344846
:1027B00000780C2309AA002100904720FFF760F859
:1027C00001200C230D4A002100900B20FFF758F840
:1027D0000B48B0F90A00B0F5FA6F64D100200C2361
:1027E0000FA25BE098000020C00000202CE0000851
:1027F0009A030020FCE20008CCE2000866000020FA
:102800007A020020480000004C0000009C020020DA
:10281000542531692C592533692C252B3369000047
:102820004F0000005000000050253034692C00009B
:1028300052253034692C000059252B3033690000B3
:1028400078252B303369252B3033692C00000000AC
:1028500079252B303369252B30336900523A2530E6
:1028600032697C463A2531697C78253032787C782B
:10287000253032780000000024E20008C10000206A
:10288000C20000206B657920696E7075747C000051
:102890000000C842252E3266760000000E2100900E
:1028A000FEF7BAFF21E000200C23AFF288020E21D0
:1028B0000090FEF7B1FFFA48C08A00F4005038B922
:1028C000002016230822194600900420FEF785FDFB
:1028D000F348C08A00F4005038B9002019230622BA
:1028E000142100901046FEF778FD01200C23EDA284
:1028F0000E2100900B20FEF78FFFEF48B0F92A0061
:1029000040420790EC48B0F9280040420690024649
:10291000EAA109A8079B09F025F801200C2309AAC0
:102920000E2100900B20FEF7ABFFE348B0F9240026
:1029300040420790E048B0F922004042069002462B
:10294000E0A109A8079B09F00DF801200C2309AAB2
:102950000E2100904120FEF793FFD74890F8260003
:102960000246AFF2F401079009A808F0FBFF01202E
:102970000C2309AA0E2100907420FEF781FFCE4897
:1029800090F8200040B101200C23D1A21B2100901F
:102990000020FEF741FF07E001200C23CDA21B2100
:1029A00000900020FEF738FF01200C23BDA21B2160
:1029B00000900B20FEF730FFBF48B0F934000190C3
:1029C00008F06FFDC449029008F0A5FB039008F0E1
:1029D000ECFDCDE90601B848B0F93600019008F0E9
:1029E00060FDBD49029008F096FB039008F0DDFD04
:1029F000CDE90401DDE90601CDE90001B7A109A88F
:102A0000DDE9042308F0AEFF01200C2309AA1B21F5
:102A100000900B20FEF734FFA7480069019008F0F2
:102A200040FDAD49029008F076FB039008F0BDFD33
:102A3000CDE90601A0484069019008F032FDA649A1
:102A4000029008F068FB039008F0AFFDCDE90401A7
:102A5000DDE90601CDE90001A3A109A8DDE9042310
:102A600008F080FF01200C2309AA1B2100904120BF
:102A7000FEF706FF9048B0F9540002469EA1079069
:102A800009A808F06FFF00200C2309AA2821009054
:102A9000FEF7C2FE01200C2382A2282100900B2009
:102AA000FEF7BAFE8448B0F9300007908248B0F9CA
:102AB00032000690024681A109A8079B08F052FF48
:102AC00001200C2309AA282100900B20FEF7D8FE34
:102AD0007948B0F92E0007907748B0F92C0006909D
:102AE000024678A109A8079B08F03CFF01200C23AF
:102AF00009AA282100904120FEF7C2FE6848807D87
:102B000000F0400030B900203B23362219460090E7
:102B1000FEF763FC79A109A808F024FF01200C232B
:102B200009AA352100900220FEF7AAFE01200C23FD
:102B30005CA2352100901120FEF76EFE5E48B0F9D0
:102B4000580007905C48B0F95600069002466CA108
:102B500009A8079B08F006FF01200C2309AA3521CC
:102B600000901120FEF78CFE5348B0F95C000790EE
:102B70005148B0F95A000690024663A109A8079B84
:102B800008F0F0FE01200C2309AA352100903F2017
:102B9000FEF776FE4248807D00F0400038B101200B
:102BA0003B233622194600900020FEF716FC4248CF
:102BB000006D059008F0F9FC554A564BCDE9060129
:102BC00008F01EFD08D801200C2353A231210090EB
:102BD0007420FEF755FE1CE03748006D059008F0A4
:102BE000E4FC4B4A4D4BCDE9060108F0F1FC08D856
:102BF00001200C234AA2312100907420FEF740FEF0
:102C000007E001200C2347A2312100907420FEF739
:102C100037FE2948006D3049079008F013FD06D9AA
:102C20002548006D4049079008F002FD02D83F4852
:102C3000214908652048006D4FF07E51059008F04D
:102C400038FA069008F04CFC0A2190FBF1F201FBE7
:102C5000120007900C200123009028217920079A68
:102C6000FEF790FD1448006D1B49059008F021FA0D
:102C7000069008F035FC0A2190FBF1F201FB1200EE
:102C800007900C200123009035217920079AFEF748
:102C900079FD01223D217620FEF76DFB49E047E0FA
:102CA0007A02002020202020202020202020202008
:102CB00020202020000000002C000020252B692C63
:102CC000252B69007C252B692C252B690000000031
:102CD000410000004E00000000002041252B2E3155
:102CE000662C252B2E3166007C252B2E31662C255B
:102CF0002B2E31660000000025690000543D0000C5
:102D0000256920252B690000252B6920252B6900CA
:102D10009A9999999999B93F2B0000009999B9BF4F
:102D20002D00000020000000000020C166661E414A
:102D300000BF00BFFEF7DEFA0FB000BD2DE9F8437B
:102D400000260025F849B1F90000C11700EB917188
:102D5000C1F38707F448B0F90000F449B1F9001055
:102D6000884200DD0027B806050E4FF0000814E089
:102D7000012008EB4801EE4B03EB810208EB480110
:102D8000002303EB41010090C8B20C233146FEF74B
:102D9000B1FC08F1010000F0FF08B8F1080FE7DB13
:102DA000E148B0F90010E148B0F90000401C814250
:102DB00001D1002400E001244FF0000813E008EBEB
:102DC0004801DC4B03EB810208EB4801682303EB6D
:102DD0004101C8B20C2331460094FEF78BFC08F188
:102DE000010000F0FF08B8F1040FE8DBD2480078DA
:102DF000B84203D0D0480770FEF7ABFA17B1012FE5
:102E00007ED18AE106F10D00C6B24FF0000814E051
:102E1000012008EB4801C94B03EB810208EB480194
:102E2000002303EB41010090C8B20C233146FEF7AA
:102E300061FC08F1010000F0FF08B8F10A0FE7DBC0
:102E4000B948B0F90000A84201D1002400E00124F3
:102E5000BB48007800F00100D0B14FF0000813E04B
:102E600008EB4801B74B03EB810208EB48015E23F6
:102E700003EB4101C8B20C2331460094FEF73AFC43
:102E800008F1010000F0FF08B8F1060FE8DB19E0D7
:102E90004FF0000813E008EB4801AB4B03EB810255
:102EA00008EB48015E2303EB4101C8B20C23314615
:102EB0000094FEF71FFC08F1010000F0FF08B8F1D4
:102EC000060FE8DB681CC5B206F10D00C6B24FF074
:102ED000000814E0012008EB48019C4B03EB810241
:102EE00008EB4801002303EB41010090C8B20C231A
:102EF0003146FEF7FFFB08F1010000F0FF0800E09B
:102F00004BE2B8F10A0FE5DB8748B0F90000A842B0
:102F100001D1002400E001248948007800F002007B
:102F2000D0B14FF0000813E008EB4801854B03EBEC
:102F3000810208EB48015E2303EB4101C8B20C2378
:102F400031460094FEF7D6FB08F1010000F0FF08BF
:102F5000B8F1060FE8DB19E04FF0000813E008EBCA
:102F60004801794B03EB810208EB48015E2303EB38
:102F70004101C8B20C2331460094FEF7BBFB08F1B7
:102F8000010000F0FF08B8F1060FE8DB681CC5B2CD
:102F900006F10D00C6B24FF0000814E0012008EB66
:102FA00048016B4B03EB810208EB4801002303EB64
:102FB00041010090C8B20C233146FEF79BFB08F19B
:102FC000010000F0FF08B8F10A0FE7DB5648B0F93E
:102FD0000000A84201D1002400E0012458480078F4
:102FE00000F00400D0B14FF0000813E008EB4801F6
:102FF000544B03EB810208EB48015E2303EB4101D4
:10300000C8B20C2331460094FEF774FB08F10100AE
:1030100000F0FF08B8F1060FE8DB19E04FF00008F8
:1030200013E008EB4801484B03EB810208EB480131
:103030005E2303EB4101C8B20C2331460094FEF736
:1030400059FB08F1010000F0FF08B8F1060FE8DBBA
:10305000681CC5B206F10D00C6B24FF0000814E0BE
:10306000012008EB48013B4B03EB810208EB4801D0
:10307000002303EB41010090C8B20C233146FEF758
:1030800039FB08F1010000F0FF08B8F10A0FE7DB97
:103090002548B0F90000A84201D1002400E0012435
:1030A0002748007800F00800D0B14FF0000813E086
:1030B00008EB4801234B03EB810208EB48015E2338
:1030C00003EB4101C8B20C2331460094FEF712FB1A
:1030D00008F1010000F0FF08B8F1060FE8DB19E085
:1030E0004FF0000813E008EB4801174B03EB810297
:1030F00008EB48015E2303EB4101C8B20C233146C3
:103100000094FEF7F7FA08F1010000F0FF08B8F1AB
:10311000060FE8DB681CC5B240E106F10D00C6B23F
:103120004FF000082DE000009C0000209E000020D1
:1031300048D60008F4E10008C300002020D70008AA
:10314000A00000200CDC000854DC000898D7000820
:1031500010D8000888D80008012008EB4801FB4B74
:1031600003EB810208EB4801002303EB41010090CF
:10317000C8B20C233146FEF7BDFA08F1010000F099
:10318000FF08B8F10A0FE7DBF148B0F90000A842E8
:1031900001D1002400E00124EE48007800F0100086
:1031A000D0B14FF0000813E008EB4801EA4B03EB05
:1031B000810208EB48015E2303EB4101C8B20C23F6
:1031C00031460094FEF796FA08F1010000F0FF087E
:1031D000B8F1060FE8DB19E04FF0000813E008EB48
:1031E0004801DE4B03EB810208EB48015E2303EB51
:1031F0004101C8B20C2331460094FEF77BFA08F176
:10320000010000F0FF08B8F1060FE8DB681CC5B24A
:1032100006F10D00C6B24FF0000814E0012008EBE3
:103220004801CF4B03EB810208EB4801002303EB7D
:1032300041010090C8B20C233146FEF75BFA08F159
:10324000010000F0FF08B8F10A0FE7DBC048B0F951
:103250000000A84201D1002400E00124BD4800780C
:1032600000F02000D0B14FF0000813E008EB480157
:10327000B94B03EB810208EB48015E2303EB4101EC
:10328000C8B20C2331460094FEF734FA08F101006D
:1032900000F0FF08B8F1060FE8DB19E04FF0000876
:1032A00013E008EB4801AD4B03EB810208EB48014A
:1032B0005E2303EB4101C8B20C2331460094FEF7B4
:1032C00019FA08F1010000F0FF08B8F1060FE8DB79
:1032D000681CC5B206F10D00C6B24FF0000814E03C
:1032E000012008EB48019F4B03EB810208EB4801EA
:1032F000002303EB41010090C8B20C233146FEF7D6
:10330000F9F908F1010000F0FF08B8F10A0FE7DB56
:103310008F48B0F90000A84201D1002400E0012448
:103320008C48007800F04000D0B14FF0000813E066
:1033300008EB4801884B03EB810208EB48015E2350
:1033400003EB4101C8B20C2331460094FEF7D2F9D9
:1033500008F1010000F0FF08B8F1060FE8DB19E002
:103360004FF0000813E008EB48017C4B03EB8102AF
:1033700008EB48015E2303EB4101C8B20C23314640
:103380000094FEF7B7F908F1010000F0FF08B8F16A
:10339000060FE8DB681CC5B200E000BF00BFFDF708
:1033A000A9FFBDE8F8832DE9F843002500266E4803
:1033B00080896E4908806E49B1F90000C11700EBA1
:1033C0009171C1F387076A48B0F900006949B1F902
:1033D0000010884200DD0027B806060E4FF00008F6
:1033E00014E0012008EB4801634B03EB810208EB7A
:1033F0004801002303EB41010090C8B20C23294689
:10340000FEF778F908F1010000F0FF08B8F10A0FA3
:10341000E7DB5748B0F900105648B0F90000401CEF
:10342000814201D1002400E001244FF0000813E0A4
:1034300008EB4801514B03EB810208EB480168237C
:1034400003EB4101C8B20C2329460094FEF752F960
:1034500008F1010000F0FF08B8F1040FE8DB48486C
:103460000078B84203D046480770FDF772FF17B1E5
:10347000012F69D1B0E105F10D00C5B24FF0000890
:1034800014E0012008EB48013E4B03EB810208EBFE
:103490004801002303EB41010090C8B20C232946E8
:1034A000FEF728F908F1010000F0FF08B8F1080F55
:1034B000E7DB3046711CCEB22D49B1F900108842CD
:1034C00001D1002400E001242848007800F0010028
:1034D000D0B14FF0000813E008EB48012A4B03EB92
:1034E000810208EB4801682303EB4101C8B20C23B9
:1034F00029460094FEF7FEF808F1010000F0FF08ED
:10350000B8F1040FE8DB19E04FF0000813E008EB16
:1035100048011E4B03EB810208EB4801682303EBD3
:103520004101C8B20C2329460094FEF7E3F808F1E4
:10353000010000F0FF08B8F1040FE8DB05F10D0011
:10354000C5B24FF0000838E00DE200009CDC000836
:103550009C000020A00000200CDC000854DC0008C7
:10356000DCDE00082CE300082C000020A600002070
:10357000A2000020A400002000D90008F4E1000807
:10358000C4000020D8D90008ACDB0008DCDB000850
:10359000012008EB4801F74B03EB810208EB4801DF
:1035A000002303EB41010090C8B20C232946FEF72B
:1035B000A1F808F1010000F0FF08B8F1080FE7DBFF
:1035C0003046711CCEB2EC49B1F90010884201D1ED
:1035D000002400E00124E948007800F00200D0B1A6
:1035E0004FF0000813E008EB4801E54B03EB8102C4
:1035F00008EB4801682303EB4101C8B20C232946BC
:103600000094FEF777F808F1010000F0FF08B8F128
:10361000040FE8DB19E04FF0000813E008EB480165
:10362000D84B03EB810208EB4801682303EB41010F
:10363000C8B20C2329460094FEF75CF808F101009B
:1036400000F0FF08B8F1040FE8DB05F10D00C5B28A
:103650004FF0000814E0012008EB4801CA4B03EBCF
:10366000810208EB4801002303EB41010090C8B23E
:103670000C232946FEF73EF808F1010000F0FF0890
:10368000B8F10A0FE7DB3046711CCEB2BA49B1F986
:103690000010884201D1002400E00124B7480078DE
:1036A00000F00400D0B14FF0000813E008EB48012F
:1036B000B34B03EB810208EB4801682303EB4101A4
:1036C000C8B20C2329460094FEF714F808F1010053
:1036D00000F0FF08B8F1040FE8DB19E04FF0000834
:1036E00013E008EB4801A74B03EB810208EB48010C
:1036F000682303EB4101C8B20C2329460094FDF76F
:10370000F9FF08F1010000F0FF08B8F1040FE8DB51
:1037100005F10D00C5B24FF0000814E0012008EBE0
:1037200048019A4B03EB810208EB4801002303EBAD
:1037300041010090C8B20C232946FDF7DBFF08F1D8
:10374000010000F0FF08B8F10C0FE7DB3046711CF8
:10375000CEB28949B1F90010884201D1002400E0BD
:1037600001248648007800F00800D0B14FF000082E
:1037700013E008EB4801824B03EB810208EB4801A0
:10378000682303EB4101C8B20C2329460094FDF7DE
:10379000B1FF08F1010000F0FF08B8F1040FE8DB09
:1037A00019E04FF0000813E008EB4801754B03EBFC
:1037B000810208EB4801682303EB4101C8B20C23E6
:1037C00029460094FDF796FF08F1010000F0FF087C
:1037D000B8F1040FE8DBC7E005F10D00C5B24FF00A
:1037E000000814E0012008EB4801694B03EB81025B
:1037F00008EB4801002303EB41010090C8B20C2301
:103800002946FDF777FF08F1010000F0FF08B8F145
:103810000E0FE7DB3046711CCEB25749B1F90010EC
:10382000884201D1002400E001245448007800F0CF
:103830001000D0B14FF0000813E008EB4801504BE6
:1038400003EB810208EB4801682303EB4101C8B296
:103850000C2329460094FDF74DFF08F1010000F00C
:10386000FF08B8F1040FE8DB19E04FF0000813E09F
:1038700008EB4801434B03EB810208EB4801682346
:1038800003EB4101C8B20C2329460094FDF732FF37
:1038900008F1010000F0FF08B8F1040FE8DB05F1C2
:1038A0000D00C5B24FF0000814E0012008EB4801FC
:1038B000384B03EB810208EB4801002303EB410185
:1038C0000090C8B20C232946FDF714FF08F101004F
:1038D00000F0FF08B8F10A0FE7DB3046711CCEB2EA
:1038E0002549B1F90010884201D1002400E00124EB
:1038F0002248007800F04000D0B14FF0000813E0FB
:1039000008EB48011E4B03EB810208EB48016823DA
:1039100003EB4101C8B20C2329460094FDF7EAFEEF
:1039200008F1010000F0FF08B8F1040FE8DB19E02E
:103930004FF0000813E008EB4801124B03EB810243
:1039400008EB4801682303EB4101C8B20C23294668
:103950000094FDF7CFFE08F1010000F0FF08B8F178
:10396000040FE8DB00E000BF00BFFDF7C3FCBDE8CB
:10397000F883000044DA0008A2000020A60000201E
:10398000ACDB0008DCDB0008A4DA00081CDB000864
:1039900014DD000854DF00082DE9F8430025A8468F
:1039A000F949B1F90000C11700EB9171C1F3870625
:1039B000F548B0F90000F549B1F90010884200DD82
:1039C0000026B0064FEA1068002712E0012007EB3E
:1039D0004701EF4B03EB810207EB4701182303EB91
:1039E00041010090C8B20C232946FDF783FE781CE4
:1039F000C7B2082FEADBE448B0F90010E348B0F999
:103A00000000401C814201D1002400E00124002775
:103A100011E007EB4701DF4B03EB810207EB4701A6
:103A2000682303EB4101C8B20C2329460094FDF73B
:103A300061FE781CC7B2042FEBDBD7480078B04298
:103A400003D0D5480670FDF784FC002E7AD105F12D
:103A50000D00C5B2002712E0012007EB4701CF4B54
:103A600003EB810207EB4701002303EB41010090C8
:103A7000C8B20C232946FDF73DFE781CC7B2122FB1
:103A8000EADB4046411C01F0FF08BF49B1F90010D4
:103A9000884201D1002400E00124C148807CB0B1FB
:103AA000002711E007EB4701BE4B03EB810207EB58
:103AB0004701682303EB4101C8B20C232946009457
:103AC000FDF718FE781CC7B2042FEBDB15E00027CA
:103AD00011E007EB4701B44B03EB810207EB470111
:103AE000682303EB4101C8B20C2329460094FDF77B
:103AF00001FE781CC7B2042FEBDB05F10D00C5B247
:103B0000002712E0012007EB4701A84B03EB8102DD
:103B100007EB4701002303EB41010090C8B20C23DF
:103B20002946FDF7E7FD781CC7B2122FEADB4046B5
:103B3000411C01F0FF089449B1F90010884202D1FC
:103B4000002401E0A1E0012499488079B0B1002768
:103B500011E007EB4701944B03EB810207EB4701B0
:103B6000682303EB4101C8B20C2329460094FDF7FA
:103B7000C1FD781CC7B2042FEBDB15E0002711E074
:103B800007EB47018B4B03EB810207EB47016823EF
:103B900003EB4101C8B20C2329460094FDF7AAFDAE
:103BA000781CC7B2042FEBDB05F10D00C5B200276E
:103BB00012E0012007EB47017F4B03EB810207EB8B
:103BC0004701002303EB41010090C8B20C232946B2
:103BD000FDF790FD781CC7B2122FEADB4046411C6E
:103BE00001F0FF086849B1F90010884201D10024B2
:103BF00000E001246E488079B0B1002711E007EBA6
:103C00004701694B03EB810207EB4701682303EB94
:103C10004101C8B20C2329460094FDF76BFD781CC6
:103C2000C7B2042FEBDB15E0002711E007EB4701DB
:103C3000604B03EB810207EB4701682303EB410173
:103C4000C8B20C2329460094FDF754FD781CC7B276
:103C5000042FEBDB05F10D00C5B2002712E00120B7
:103C600007EB4701554B03EB810207EB47010823A4
:103C700003EB41010090C8B20C232946FDF73AFD41
:103C8000781CC7B2142FEADB00E000BF00BFFDF7CD
:103C900031FBBDE8F88307B5B0F5E16F05DD484AB3
:103CA0001278521C464B1A700AE0454A1278022AD2
:103CB00003DD0A88521E12B20A800022404B1A709D
:103CC000B0F5966F05DA3F4A1278521C3D4B1A70D8
:103CD0000AE03C4A1278022A03DD0A88521C12B21A
:103CE0000A800022374B1A70B1F90020002A05DA49
:103CF000BDF80820521C12B20A8008E0B1F9003069
:103D0000BDF90820521C934201DD00220A800EBD3D
:103D100017B5B0F5E16F02DCB0F5966F05DA2A4A07
:103D20001278521C284B1A700DE0274A1278022A8A
:103D300006DD0A88BDF808400123A3405A400A80E6
:103D40000022214B1A701EBD7FB506460C461D464B
:103D500056B11E48807B00F0800028B91C480078CE
:103D6000401C1B490870AEE019480078042870DB3D
:103D70001748007832286CDA16A10D483A3007F05F
:103D8000F1FD052D2DD227E0A8000020AA0000207B
:103D9000CCDF000824E20008C50000202CE0000869
:103DA0009A030020FCE2000854E2000848D600080C
:103DB0002C00002084E2000800D9000804E100087B
:103DC000C6000020C7000020C80000207A020020A2
:103DD000C900002000000000DFE805F003260415FC
:103DE00042006CE0B4F90010BDF90800401C8142AB
:103DF00008D10420A6498870A6480088401C00B25B
:103E0000A54908805BE0B4F90010BDF90800401C2A
:103E1000814208D104209E4988709E480088401C39
:103E200000B29D4908804AE09C48008890B99C48AF
:103E3000807C50B1FDF72AFA9AA195483A3007F0F4
:103E400091FD00209649887409E00120934908807B
:103E500005E035E00020914908808D4988702EE00A
:103E60002088401C8A4988700846807801280CD137
:103E70008B48807C48B1FDF709FA8AA184483A3022
:103E800007F070FD002086498874B4F90010BDF970
:103E90000800401C814205D100207D4988707E4980
:103EA00008800BE07A48807940B92088012802D048
:103EB0002088022802D104207549887000BF00BF05
:103EC00000207B4908707FBD10B571488078794922
:103ED0000978884218D06E488078022803D16C484F
:103EE000C0897549088073480078022808D168485D
:103EF000C08971490988884202D001206F49087041
:103F0000634880786B4908706148807801283ED00A
:103F1000022804D0032824D0042859D142E068495B
:103F2000898888B26749B1F900206749FFF7B3FE75
:103F300057498B786249897B01F001006149B1F9E9
:103F400000206149FFF700FF5148807940B15C498A
:103F5000C98888B25C49B1F900205749FFF7D8FEFB
:103F600037E05749898888B25849B1F90020584943
:103F7000FFF791FE46498B785149897B01F001009A
:103F80005249B1F900205249FFF7DEFE21E04049D5
:103F90008B784B49897B01F0010000221146FFF725
:103FA000D3FE16E04649898888B23A49B1F9002023
:103FB0003949FFF770FE36498B784149897B01F01A
:103FC00001003449B1F900203349FFF7BDFE00E09C
:103FD00000BF00BF10BD10B53E480078401C3D49F1
:103FE00008702B4880783C490978884205D02848D9
:103FF000807839490870FDF7ACF936480078142804
:1040000010DB0020334908703448007808B90120DB
:1040100000E0002031490870084602783F21002066
:10402000FDF7A9F92E4800682E490968401A4FF695
:10403000FF7101EA40002C4908802948006829499D
:10404000086013488078052813D2DFE800F0030CDD
:1040500006090F00FDF76AFD0CE0FEF76FFE09E0B0
:10406000FFF7A1F906E0FEF7BBF903E0FFF794FCC8
:1040700000E000BF00BF1A4800681A490968401AEA
:104080004FF6FF7101EA40001849088010BD00009A
:104090002C000020AA000020A8000020980000208A
:1040A0009A03002053617665506172616D000000D3
:1040B000C9000020CA000020A0000020AC000020A1
:1040C0007A0200209E0000209C000020A400002016
:1040D000A2000020CB000020CD000020CC0000205A
:1040E000D8000020B0000020B4000020B60000205E
:1040F00000B585B0684602F012FD0D490098B0FB8E
:10410000F1F00C49086005B000BD01B502E000986F
:10411000401E009000980028F9D108BD10B506484F
:104120000068401C04490860FCF74CF910BD000011
:1041300040420F00D0000020D800002010B500F051
:104140008BFB10BD10B5FFF7E9FF10BD704710B530
:1041500006F0F0FC10BD000000B587B00121084654
:1041600002F057FD0121084602F046FD01216C488E
:1041700003F023FA40F2CF70ADF814004720ADF8F9
:1041800010000020ADF81600ADF8120004A94FF0A1
:10419000804003F0E9FC6020ADF800000120ADF89C
:1041A00002000020ADF80600ADF8080069464FF0A7
:1041B000804003F0F0FD0821C80604F080F90121D9
:1041C000880704F02DF90121880704F029F8002060
:1041D0004FF08041888707B000BD08B5012108462F
:1041E00002F00AFD0121182002F006FD10208DF8D2
:1041F000030003208DF802004FF40050ADF80000DA
:104200006946484803F008F90220ADF80000032091
:104210008DF8020010208DF803006946414803F034
:10422000FBF810208DF8030002208DF802004002F8
:10423000ADF8000069463B4803F0EEF84FF48061AA
:10424000384803F096F908BD70B5012502F0F4F97D
:104250003549884201D1032505E002F0EDF93349E3
:10426000884200D10225002423E002212D4803F0DA
:1042700082F94FF400512B4803F07DF94FF480612F
:10428000284803F078F92A48FFF73FFF0221254824
:1042900003F06FF94FF40051224803F06AF94FF42C
:1042A0008061204803F065F92148FFF72EFF601C6C
:1042B000C4B2AC42D9DB70BD2DE9F14F82B01D48CC
:1042C0000168029806F09DFE1A4908601A491948CB
:1042D000006807F0B7F902D80020164908601548B1
:1042E000006807F062F9CDE9000108F0E7FA8046BE
:1042F0000022124B06F04DFF064600224FF080438D
:1043000007F060F8044600220D4B06F0E9FF8246F4
:1043100007F032F94FF080418887BDE8FE8F00003A
:1043200000021800000C014000A24A04006CDC02EC
:10433000C0270900DC000020DB0FC9400000F03F6F
:10434000003C9F4070B505460C4600F0F8F9284641
:1043500000F0D6F90646204600F0D2F900F0E9F95F
:10436000304670BD70B5044600F0E9F9204600F013
:10437000C7F9002000F0C4F9054600F0DAF9284634
:1043800070BD2DE9F04107460D46164600F0D7F9FD
:10439000384600F0B5F98046002404E0285D00F0BE
:1043A000AFF9601CC4B2B442F8DB00F0C2F9404679
:1043B000BDE8F0812DE9F04107460D46164600F0B4
:1043C000BEF9384600F09CF98046002405E0002044
:1043D00000F096F92855601CC4B2B442F7DB00F037
:1043E000A8F94046BDE8F08170B504460D460522A7
:1043F00081492A20FFF7C5FF2A462146A020FFF762
:10440000C0FF70BD70B504460D462A462146A8205F
:10441000FFF7B7FF70BD10B57848007820B3784833
:104420000088002810DD0020744908707548007865
:10443000401E7449087008460078FF2801D17D208D
:104440000870FCF723FF0FE06E4801780078401CED
:104450006C4B18702520FFF775FF6A4800787D289F
:1044600002DD00206749087010BD70B504460D4696
:10447000052265492A20FFF784FF05225E49302086
:10448000FFF77FFF01212120FFF75CFF01212220A0
:10449000FFF758FF1A212420FFF754FF2946252053
:1044A000FFF750FF0F212620FFF74CFF012C08D10A
:1044B00020213120FFF746FF0F212020FFF742FF88
:1044C00041E0022C08D120213120FFF73BFF0E21D3
:1044D0002020FFF737FF36E0032C1AD1FF21E1201F
:1044E000FFF730FFFF21E220FFF72CFF0F212020F4
:1044F000FFF728FF502000F003F9732000F000F9C7
:1045000001213C20FFF71EFF06213D20FFF71AFF87
:1045100019E00E212020FFF715FFFF21E120FFF712
:1045200011FFFF21E220FFF70DFF502000F0E8F817
:10453000732000F0E5F801213C20FFF703FF06217E
:104540003D20FFF7FFFE70BD1CB505222A49302033
:10455000FFF717FF052269461020FFF72BFF002405
:1045600008E01DF804002449095D884200D003E0FA
:10457000601CC4B2052CF4DB00BF052C01D1012066
:104580001CBD0020FCE710B50720FFF7EBFE04463A
:1045900004F0400000B36020FFF7E4FE1B49087000
:1045A00008460078212813DA084602781849612065
:1045B000FFF700FF012017490870144801781448DC
:1045C000FCF79FFC0E480088401C0D49088003E062
:1045D000FF21E220FFF7B6FE04F0100030B104F036
:1045E000010018B1FF21E120FFF7ACFE2146272092
:1045F000FFF7A8FE10BD0000E0000020EB00002047
:10460000EE0000209A030020E5000020EA000020D0
:10461000C2070020F000002000B587B00121080388
:1046200002F0F7FA0121052002F0E6FA01214748DD
:1046300002F0C3FF4FF0007045494860012104209B
:1046400002F0DAFA4FF40040ADF8040003208DF8D0
:10465000060010208DF8070001A93E4802F0DCFE9C
:104660000121042002F0C8FA1020ADF80400032054
:104670008DF8060010208DF8070001A9354802F0DA
:10468000CBFE1021334802F074FF4FF40041314853
:1046900002F06FFFE020ADF8040003208DF8060063
:1046A00018208DF8070001A92A4802F0B5FE002164
:1046B000294803F0CAF80020ADF808004FF48270D2
:1046C000ADF80A000020ADF80C00ADF80E00ADF812
:1046D00010004FF40070ADF812001020ADF8140077
:1046E0000020ADF816000720ADF8180002A91A48FE
:1046F00003F006F80121184803F0A7F807B000BD41
:1047000010B5044600BF0221134803F022F9002827
:10471000F9D02146104803F0C9F800BF01210E4826
:1047200003F017F90028F9D00B4803F0C1F8C0B224
:1047300010BD10B51021074802F01BFF10BD10B5C9
:104740001021044802F017FF10BD000000023000E5
:1047500000000140000801400030014010B588B061
:1047600004460121880302F047FA0121084602F0BD
:1047700043FA0121042002F03FFA4FF40070ADF833
:10478000040003208DF8060018208DF8070001A909
:10479000A64802F041FE4FF48060ADF8040003200B
:1047A0008DF8060004208DF8070001A99F4802F04B
:1047B00033FE0121042002F000FF04940020ADF834
:1047C0001400ADF81600ADF81800ADF81C000C2070
:1047D000ADF81A000020ADF80800ADF80A004FF45B
:1047E0000070ADF80C000020ADF80E0004A9904850
:1047F00004F037F802A98E4804F0A8F8012240F22C
:1048000025518B4804F0C5F80121894804F0B5F81A
:1048100025208DF8000005208DF8010001208DF87D
:1048200002008DF80300684602F04FFA08B010BD90
:1048300008B57F4803F0D2FF002240F225517C48A2
:1048400004F0A7F825208DF8000000208DF8030063
:10485000684602F03AFA08BD10B50821744804F021
:1048600067F910B1724804F0F9F87148008800F057
:104870008000F0B16E480C30008800F08000C0B1BC
:104880006C4801780078401C6A4A10706A48405CA5
:104890006749091D088010460078684909788842F0
:1048A00007D163480C30008820F0800060490C314B
:1048B00008805F48008800F0200000286DD05C4828
:1048C000001D0088C4B25E48007838B9AA2C05D112
:1048D00001205B4908705B4804705DE0584800782F
:1048E000012807D1AA2C05D1022055490870554846
:1048F000447051E052480078022807D1F12C05DCC1
:1049000003204F4908704F48847045E04C480078B8
:1049100003280CD1FF2C0ADA0420494908704948C1
:10492000C4704948047000204849087034E0444885
:104930000078042819D144480078002815DD424841
:104940000078401E40490870404800783F49097887
:10495000491C3E4A1170001D3A490C543A480078EF
:10496000D0B905203649087016E03548007805288A
:104970000FD100203249087034480078001D3149B9
:104980000C5432480078401DC1B22E48FFF72CFD70
:1049900002E000202A49087000BF10BD10B504468F
:1049A000264801780078401C244A1070224844545C
:1049B000012240F227711E4803F0EBFF10BD10B535
:1049C00004460FE020780D2802D1FFF7E7FF08E04A
:1049D00020780A2802D1FFF7E1FF02E02078FFF7F4
:1049E000DDFF641C20780028ECD110BD70B50446B2
:1049F0000D4600200AE0225C10490B780978491C1A
:104A00000E4E31700C49CA54411CC8B2A842F2DBA8
:104A100007480C30008800F0800028B9012240F2DD
:104A20002771034803F0B5FF70BD00000008014086
:104A300000380140F100002002080020F2000020B0
:104A4000F300002002090020F4000020F5000020FF
:104A500008B50121084602F0C2F801214FF40370A5
:104A600002F0CAF80F20ADF8000000208DF8030016
:104A70006946534802F0D0FC0120ADF80000002048
:104A80008DF8030069464F4802F0C6FC08BD00B52A
:104A900091B04D4804F0CEFA4C4806904C4807902F
:104AA000002008900920099000200A9080200B9097
:104AB00040000C9080000D9020200E9000020F907E
:104AC0000020109006A9404804F056FB01213E4802
:104AD00004F07DFB3D484C3804F084F8012004F0DC
:104AE00065FA0020019001208DF808008DF809007A
:104AF0004FF4602003900020049009208DF81400EA
:104B000001A932484C3804F094F84FF4004001F009
:104B1000D7FF0623012200212C484C3804F021F94C
:104B200006230222012129484C3804F01AF90623F1
:104B30000322022125484C3804F013F907230422EC
:104B4000032122484C3804F00CF9062308221146B0
:104B50001E484C3804F005F90723092211211B488F
:104B60004C3804F0FEF8012118484C3804F098F84D
:104B7000012116484C3804F088F814484C3804F0E9
:104B8000A6F800BF11484C3804F0A6F80028F9D167
:104B90000E484C3804F0AAF800BF0C484C3804F01A
:104BA000AAF80028F9D1012108484C3804F0ADF8E2
:104BB00011B000BD10B5FFF74BFFFFF768FF10BD48
:104BC00000080140000C0140080002404C24014054
:104BD000020A002008B50121082002F00DF84FF468
:104BE0008070ADF8000003208DF8020014208DF8CD
:104BF00003006946F84802F00FFC8020ADF8000081
:104C000003208DF8020014208DF803006946F24855
:104C100002F002FC08BD704700B58020EE4910315B
:104C2000086040000860FFF7F6FFEB4808300068B6
:104C300008B9012000E0002000F0800008B1002049
:104C400000BD8020E44914310860FFF7E4FFE2482A
:104C50000830006800F0800008B10020F0E74FF451
:104C60008070DD4914310860FFF7D5FF0120E7E7C8
:104C700000B54FF48070D84914310860FFF7CBFFBE
:104C80008020D54914310860FFF7C5FF4FF48070CC
:104C9000D14910310860FFF7BEFF8020CE491031A6
:104CA0000860FFF7B8FF00BD00B54FF48070CA4937
:104CB00014310860FFF7AFFF8020C7491431086046
:104CC000FFF7A9FF4FF48070C34910310860FFF768
:104CD000A2FF4FF48070C04914310860FFF79BFFBA
:104CE00000BD00B54FF48070BB4914310860FFF778
:104CF00092FF8020B84910310860FFF78CFF4FF415
:104D00008070B54910310860FFF785FF4FF480705F
:104D1000B14914310860FFF77EFF00BD00B54FF4C4
:104D20008070AD4914310860FFF775FF8020AA49F3
:104D300010310860FFF76FFF4FF48070A649103103
:104D40000860FFF768FFA4480830006800F08000A2
:104D500040B14FF48070A04914310860FFF75BFF49
:104D6000002000BD4FF480709B4914310860FFF7AC
:104D700052FF0120F5E700B508211DE04FF48072D5
:104D8000954B14331A60FFF746FF00F0800222B102
:104D90008022914B10331A6003E080228E4B143333
:104DA0001A604206100EFFF736FF4FF480728A4BEE
:104DB00010331A60FFF72FFF0A00A1F10103D9B2E7
:104DC000DCD14FF48072844B14331A6000BD00B5FF
:104DD00008211DE04FF480727F4B14331A60FFF7F7
:104DE0001AFF00F0800222B180227B4B10331A6040
:104DF00003E08022784B14331A604206100EFFF74E
:104E00000AFF4FF48072744B10331A60FFF703FFF0
:104E10000A00A1F10103D9B2DCD14FF480726E4BCC
:104E200014331A60FFF7F7FE4FF480726A4B1033A9
:104E30001A60FFF7F0FE4FF48072674B14331A606C
:104E400000BD00B5082100208022634B10331A609A
:104E500017E04206100E4FF480725F4B14331A6055
:104E6000FFF7D9FE4FF480725B4B10331A60FFF7E7
:104E7000D2FE594A0832126802F080020AB140F0AC
:104E800001000A00A1F10103D9B2E2D14FF480720E
:104E9000514B14331A6000BD00B5FFF7BDFE08B9D1
:104EA000002000BD7820FFF792FF0120F9E700B550
:104EB000FFF7DEFE012000BD10B504461CB900203E
:104EC000FFF785FF02E04020FFF781FF012010BDC2
:104ED00010B504462046FFF77AFF012010BD10B53B
:104EE0000446FFF799FE08B9002010BD7820FFF7AF
:104EF0006EFF0020FFF76BFF2046FFF768FFFFF70C
:104F0000B7FE0120F1E710B50446FFF785FE08B9AA
:104F1000002010BD7820FFF75AFF4020FFF757FF11
:104F20002046FFF754FFFFF7A3FE0120F1E770B51D
:104F300006460C461546FFF76FFE08B9002070BD07
:104F40003046FFF718FFFFF7E9FE18B9FFF790FEAC
:104F50000020F4E72046FFF70EFFFFF7DFFE2846AC
:104F6000FFF709FFFFF7DAFEFFF782FE0120E6E711
:104F700070B504460D46FFF74FFE08B9002070BD1E
:104F80002046FFF7F8FEFFF7C9FE18B9FFF770FEDD
:104F90000020F4E72846FFF7EEFEFFF7BFFEFFF71D
:104FA0003BFE611CC8B2FFF7E6FEFFF7B7FEFFF756
:104FB00048FF0646FFF795FEFFF75AFE3046DEE74C
:104FC0002DE9F0410746884614461D46012D05DAB5
:104FD0000020BDE8F0810000000C0140FFF71CFE3E
:104FE00008B90020F5E73846FFF7C5FEFFF796FE43
:104FF00018B9FFF73DFE0020EBE74046FFF7BBFE88
:10500000FFF78CFEFFF708FE791CC8B2FFF7B3FE6E
:10501000FFF784FE012607E0FFF713FF04F8010BFA
:10502000FFF742FE701CC6B2AE42F5DBFFF709FF88
:1050300004F8010BFFF755FEFFF71AFE0120C8E741
:1050400010B505F0F6FC05F0E2FC05F0BFFC04F03D
:10505000ABFE00208249087005F016FD6420FFF7C2
:1050600054F8012005F010FD10BD70B50A4600216E
:105070000AE0445C7B4B1D781B785B1C794E3370D7
:10508000794B5C554B1CD9B29142F2DB8178EF2908
:1050900002D10121754B197070BD10B571480078AF
:1050A0007349097888426ADD6E480078704909784A
:1050B000401A3F281FDB00206E4908703F206E49D0
:1050C000087000200BE06A490A780978491C684B8F
:1050D000197065498A5C684B411C5A54C8B23F2814
:1050E000F1DB40224FF48C71634805F065F8022033
:1050F00005F042F9B2E05F480078401C5D49087055
:10510000084600785D490978884203D057480078FE
:10511000012830D10020574908705248007854497E
:105120000978401A54490870002015E04D49097863
:105130004F4A1278891A814208DD4D4909780144A5
:10514000494A525C4C4B411C5A5403E000224A4BE2
:10515000411C5A54411CC8B23F28E7DB4148007843
:105160004349087040224FF48C71434805F024F8FD
:10517000022005F001F900203C4908706EE0394832
:1051800000783B490978884268DA39480078C0F5E8
:1051900080703449097808443F281FDB00203549D6
:1051A00008703F203449087000200BE030490A782D
:1051B0000978491C2E4B19702B498A5C2E4B411CD7
:1051C0005A54C8B23F28F1DB40224FF48C712A4870
:1051D00004F0F2FF022005F0CFF83FE02548007808
:1051E000401C244908700846007824490978884200
:1051F00034D100201F4908701D48007840421949E9
:10520000097808441C490870002018E018490978FA
:10521000C1F58071134A12781144814209DD1449A5
:1052200009780144C9B2104A525C134B411C5A54CC
:1052300003E00022104B411C5A54411CC8B23F28C5
:10524000E4DB084800780A49087040224FF48C716A
:10525000094804F0B1FF022005F08EF810BD0000EF
:105260008A010020F8000020540A0020F9000020E4
:10527000F7000020FA000020700B0020F60000204C
:1052800018B5024600201AE04B1E441CA3420CDB5A
:10529000264B0344B3F8003400939DF800301354B8
:1052A0009DF80140431CD45407E0204B0344B3F85D
:1052B000003400939DF800301354831C98B2884248
:1052C000E2DB012018BD2DE9F04105460E4601F054
:1052D00084FD174801F0C6FD8046B8F1040F02D0E6
:1052E0000020BDE8F08100241BE0701E611C884294
:1052F00006DB295D601C285C01EB002087B203E01F
:10530000285D00F57F4087B209496018394601F0F1
:10531000ACFE8046B8F1040F01D00020E1E7A01CEC
:1053200084B2B442E1DB0120DBE7000000F00008BA
:1053300000F4000808B50121192001F05DFC0121ED
:10534000FD4802F03AF90121FC4802F036F941F635
:10535000F830ADF8000048208DF8030003208DF8E8
:1053600002006946F64802F057F84FF46040ADF885
:1053700000006946F34802F04FF84FF40060F2492C
:1053800048808880C88008BD10B50020EF49887328
:10539000EB480830006800F4804028B9084690F9CE
:1053A0000E0040F001008873E5480830006800F402
:1053B000004030B9E54890F90E0040F00200E349A2
:1053C0008873E048806800F4005030B9DF4890F9F5
:1053D0000E0040F00400DD498873D94808300068A9
:1053E00000F4006030B9D94890F90E0040F0080090
:1053F000D6498873D348806800F4804030B9D348D8
:1054000090F90E0040F01000D0498873CD488068B4
:1054100000F4004030B9CD4890F90E0040F0200073
:10542000CA498873C6480830006800F4805030B913
:10543000C64890F90E0040F04000C4498873C04847
:105440000830006800F4007030B9C048807B40F03C
:10545000800040B2BD498873BD4800781E280ADD2F
:105460000020BB490870B948B0F9160020F00200CE
:10547000B649C88212E0B648007878B1B4480078DE
:10548000401CB3490870084600781E2806D1AF4872
:10549000807B00F0040008B11D200870AD48007842
:1054A0001E280ADD0020AB490870A848B0F9160094
:1054B00020F00100A549C88212E0A648007878B122
:1054C000A4480078401CA3490870084600781E28AC
:1054D00006D19E48807B00F0080008B11D200870AE
:1054E0009A48807B00F00100E0B19B480078FF28DB
:1054F0005FD099480078401C9749087008460078AA
:10550000642856DBFF20087094A1974806F02AFA19
:10551000012096490870FEF797FE002092493A391B
:10552000887046E08C48007804283FDB8A48007881
:10553000FF283BD08548807B00F0800038B38A4844
:105540003A38807820B188483A38807801282DD1BF
:105550000120874908707D49B1F9000005F0A1FFDD
:105560000446844906F06EF807D283A17E4806F00F
:10557000F9F902208349087018E083A17A4806F0FF
:10558000F1F9012083494870FEF75EFE0EE001202C
:105590007C49087074483A38807838B97EA17248DE
:1055A00006F0E0F9042070493A39887000206A4911
:1055B00008706648807B00F0020000286ED07948B1
:1055C0000078FF2820D077480078401C7549087083
:1055D00008460078642817DBFF2008705B48807D50
:1055E00000F0400000BB5949B1F9000005F059FF37
:1055F00004466D4906F026F807D26CA15A4806F019
:10560000B1F902205F490870C9E15048C08A40F4EE
:10561000004000B24D49C88267A1534806F0A2F984
:10562000042058490870BAE14849B1F9000005F072
:1056300038FF0446634905F0FBFF09D34349B1F93C
:10564000000005F02EFF04465F4905F0FBFF07D27E
:105650005EA1454806F086F902204A4908709EE19D
:105660005DA1414806F07EF902204649087037489E
:10567000B0F9160040F080003449C8820846B0F9FD
:10568000160020F04000C8824FF47A704881084626
:10569000808A00F47F4000B2888280E1414800782F
:1056A000042848DB3F480078FF2844D02748807B07
:1056B00000F08000F0B32548807D00F04000F0B994
:1056C0000220304908702148B0F9160040F040002F
:1056D0001E49C8824FF4FA60488042A1224806F071
:1056E00041F91A48808A00F47F4000B21749888245
:1056F0004FF4FA60488101201D4908704CE10120F7
:10570000204908703AA1184806F02CF94FF47A7035
:105710000E49488008800846B0F9160020F0400085
:10572000C8820846808A00F47F4000B288820E4812
:105730003A3863E072E01AE1000430000002300001
:10574000000C014000100140700200207A0200208D
:105750000A0100200B010020FF0000204B313A20FD
:105760006C6F6E672000000066000020EB000020D8
:10577000FE000020004083444B313A6572726F7224
:1057800033000000070100204D69644F66667365B1
:10579000740000009A0300204B313A20646F776E4A
:1057A0002000000000010020008089444B323A654F
:1057B00072726F72310000004B3A4D5055363035E1
:1057C000300000000080A2440080D4444B323A658F
:1057D00072726F72320000004B323A6B6579466C20
:1057E000790000004B323A20726561647900000054
:1057F0004B323A63616E63656C00000090F82100E3
:10580000012803D14FF47A70488103E04FF4FA6025
:10581000FB4948810120FB490870BDE0F848807DC4
:1058200000F0400038B90120F7490870F7A1FA48A4
:1058300006F098F825E00120F3490870F7A1F64832
:1058400006F090F84FF47A70ED49488008800846D9
:10585000B0F9160020F04000C8820846808A00F4A3
:105860007F4000B28882EC483A3890F82100012845
:1058700003D14FF47A70488103E04FF4FA60E049B5
:105880004881E9480068E9490968401A372802D97F
:105890000020E7490870E4480068E4490860E448EB
:1058A0000078401CE24908700846007802282CD194
:1058B000D348807B00F0400038B3002008700320FC
:1058C000D1490870CE48C08A00F4005070B1CC486D
:1058D000B0F9160020F40050C949C882D5A1CE48BD
:1058E00006F040F80120C749087055E0C448B0F9F7
:1058F000160040F40050C249C882D1A1C64806F043
:1059000031F80120BF49087046E0C94800780328F3
:1059100042DB0020C64908700320BB490870B84824
:10592000B0F90A0080F48760B54948810846B0F9AB
:105930000A00B0F5FA6F09D1C4A1B74806F012F811
:105940000020B5493A3981F8210025E0C2A1B248CA
:1059500006F008F80120B0493A3981F82100A8483A
:10596000B0F9160020F40050A549C88214E0BD48E3
:105970000078FF2810D1BCA1A74805F0F3FFA0488C
:10598000B0F9160020F080009D49C8820846C08A00
:1059900020F4004000B2C8820020B2490870984844
:1059A000807B00F00400B0B3B2480078FF2848D0F4
:1059B000B0480078401CAF490870084600780228BB
:1059C0003FDBFF20087001208F4908708C48807DE4
:1059D00000F0400058B18A48B0F9160020F04000AD
:1059E0008749C882A4A18C4805F0BCFF03E0A5A1AB
:1059F000894805F0B7FF8248B0F91600012121EA75
:105A00001010002808DD7E48B0F9160040F01000A4
:105A10007B49C88207E011E07948B0F9160020F010
:105A200010007749C8827648B0F9160040F00200AD
:105A30007349C88201209649087002E000208D4910
:105A400008706F48807B00F00800E0B39148007850
:105A5000FF284BD08F480078401C8E4908700846BC
:105A60000078022842DBFF20087001206649087098
:105A70006348807B00F0800030BB87A1664805F05A
:105A800071FF5F48B0F91600012121EA10100028CB
:105A900007DD5B48B0F9160040F010005849C88295
:105AA00006E05748B0F9160020F010005449C882AB
:105AB0005348B0F9160040F001005149C882012056
:105AC0007849087012E00EE077A1534805F04AFFCC
:105AD0004B48B0F9160040F480504949C882012073
